{
  "contractName": "OrderRegistry",
  "abi": [
    {
      "anonymous": false,
      "inputs": [
        {
          "indexed": false,
          "name": "orderno",
          "type": "string"
        }
      ],
      "name": "OrderGenerated",
      "type": "event"
    },
    {
      "anonymous": false,
      "inputs": [
        {
          "indexed": false,
          "name": "orderno",
          "type": "string"
        }
      ],
      "name": "MfgTrigger",
      "type": "event"
    },
    {
      "anonymous": false,
      "inputs": [
        {
          "indexed": false,
          "name": "orderno",
          "type": "string"
        }
      ],
      "name": "SupplyTrigger",
      "type": "event"
    },
    {
      "anonymous": false,
      "inputs": [
        {
          "indexed": false,
          "name": "orderno",
          "type": "string"
        },
        {
          "indexed": false,
          "name": "category",
          "type": "uint256"
        },
        {
          "indexed": false,
          "name": "report",
          "type": "string"
        }
      ],
      "name": "ReportSubmit",
      "type": "event"
    },
    {
      "constant": false,
      "inputs": [
        {
          "name": "orderno",
          "type": "string"
        },
        {
          "name": "product",
          "type": "string"
        },
        {
          "name": "temp",
          "type": "string"
        },
        {
          "name": "value",
          "type": "string"
        },
        {
          "name": "quantity",
          "type": "string"
        },
        {
          "name": "delivery",
          "type": "string"
        }
      ],
      "name": "createOrder",
      "outputs": [],
      "payable": false,
      "stateMutability": "nonpayable",
      "type": "function"
    },
    {
      "constant": false,
      "inputs": [
        {
          "name": "orderno",
          "type": "string"
        },
        {
          "name": "name",
          "type": "string"
        },
        {
          "name": "delivery",
          "type": "string"
        },
        {
          "name": "value",
          "type": "string"
        },
        {
          "name": "quantity",
          "type": "string"
        }
      ],
      "name": "setDistValues",
      "outputs": [],
      "payable": false,
      "stateMutability": "nonpayable",
      "type": "function"
    },
    {
      "constant": false,
      "inputs": [
        {
          "name": "orderno",
          "type": "string"
        },
        {
          "name": "name",
          "type": "string"
        },
        {
          "name": "material",
          "type": "string"
        },
        {
          "name": "delivery",
          "type": "string"
        },
        {
          "name": "value",
          "type": "string"
        },
        {
          "name": "quantity",
          "type": "string"
        }
      ],
      "name": "setMfgValues",
      "outputs": [],
      "payable": false,
      "stateMutability": "nonpayable",
      "type": "function"
    },
    {
      "constant": false,
      "inputs": [
        {
          "name": "orderno",
          "type": "string"
        },
        {
          "name": "category",
          "type": "uint256"
        },
        {
          "name": "report",
          "type": "string"
        }
      ],
      "name": "setReport",
      "outputs": [],
      "payable": false,
      "stateMutability": "nonpayable",
      "type": "function"
    },
    {
      "constant": true,
      "inputs": [
        {
          "name": "orderno",
          "type": "string"
        },
        {
          "name": "category",
          "type": "uint256"
        }
      ],
      "name": "getReport",
      "outputs": [
        {
          "name": "",
          "type": "string"
        }
      ],
      "payable": false,
      "stateMutability": "view",
      "type": "function"
    },
    {
      "constant": true,
      "inputs": [
        {
          "name": "orderno",
          "type": "string"
        }
      ],
      "name": "fetchInitialDetails",
      "outputs": [
        {
          "name": "",
          "type": "string"
        },
        {
          "name": "",
          "type": "string"
        },
        {
          "name": "",
          "type": "string"
        },
        {
          "name": "",
          "type": "string"
        },
        {
          "name": "",
          "type": "string"
        }
      ],
      "payable": false,
      "stateMutability": "view",
      "type": "function"
    },
    {
      "constant": true,
      "inputs": [
        {
          "name": "orderno",
          "type": "string"
        }
      ],
      "name": "getDistValues",
      "outputs": [
        {
          "name": "",
          "type": "string"
        },
        {
          "name": "",
          "type": "string"
        },
        {
          "name": "",
          "type": "string"
        },
        {
          "name": "",
          "type": "string"
        }
      ],
      "payable": false,
      "stateMutability": "view",
      "type": "function"
    },
    {
      "constant": true,
      "inputs": [
        {
          "name": "orderno",
          "type": "string"
        }
      ],
      "name": "getMfgDetails",
      "outputs": [
        {
          "name": "",
          "type": "string"
        },
        {
          "name": "",
          "type": "string"
        },
        {
          "name": "",
          "type": "string"
        },
        {
          "name": "",
          "type": "string"
        },
        {
          "name": "",
          "type": "string"
        }
      ],
      "payable": false,
      "stateMutability": "view",
      "type": "function"
    }
  ],
  "bytecode": "0x608060405234801561001057600080fd5b50612d91806100206000396000f30060806040526004361061008e576000357c0100000000000000000000000000000000000000000000000000000000900463ffffffff16806302f20b9c14610093578063365ede481461017f57806363727449146102385780636c463635146104ca5780637972d079146106f0578063826f8a00146108b757806387d517c914610a7e578063baaa3eef14610d10575b600080fd5b34801561009f57600080fd5b50610104600480360381019080803590602001908201803590602001908080601f016020809104026020016040519081016040528093929190818152602001838380828437820191505050505050919291929080359060200190929190505050610e91565b6040518080602001828103825283818151815260200191508051906020019080838360005b83811015610144578082015181840152602081019050610129565b50505050905090810190601f1680156101715780820380516001836020036101000a031916815260200191505b509250505060405180910390f35b34801561018b57600080fd5b50610236600480360381019080803590602001908201803590602001908080601f016020809104026020016040519081016040528093929190818152602001838380828437820191505050505050919291929080359060200190929190803590602001908201803590602001908080601f0160208091040260200160405190810160405280939291908181526020018383808284378201915050505050509192919290505050611217565b005b34801561024457600080fd5b5061029f600480360381019080803590602001908201803590602001908080601f01602080910402602001604051908101604052809392919081815260200183838082843782019150505050505091929192905050506114d4565b60405180806020018060200180602001806020018060200186810386528b818151815260200191508051906020019080838360005b838110156102ef5780820151818401526020810190506102d4565b50505050905090810190601f16801561031c5780820380516001836020036101000a031916815260200191505b5086810385528a818151815260200191508051906020019080838360005b8381101561035557808201518184015260208101905061033a565b50505050905090810190601f1680156103825780820380516001836020036101000a031916815260200191505b50868103845289818151815260200191508051906020019080838360005b838110156103bb5780820151818401526020810190506103a0565b50505050905090810190601f1680156103e85780820380516001836020036101000a031916815260200191505b50868103835288818151815260200191508051906020019080838360005b83811015610421578082015181840152602081019050610406565b50505050905090810190601f16801561044e5780820380516001836020036101000a031916815260200191505b50868103825287818151815260200191508051906020019080838360005b8381101561048757808201518184015260208101905061046c565b50505050905090810190601f1680156104b45780820380516001836020036101000a031916815260200191505b509a505050505050505050505060405180910390f35b3480156104d657600080fd5b50610531600480360381019080803590602001908201803590602001908080601f0160208091040260200160405190810160405280939291908181526020018383808284378201915050505050509192919290505050611a21565b6040518080602001806020018060200180602001858103855289818151815260200191508051906020019080838360005b8381101561057d578082015181840152602081019050610562565b50505050905090810190601f1680156105aa5780820380516001836020036101000a031916815260200191505b50858103845288818151815260200191508051906020019080838360005b838110156105e35780820151818401526020810190506105c8565b50505050905090810190601f1680156106105780820380516001836020036101000a031916815260200191505b50858103835287818151815260200191508051906020019080838360005b8381101561064957808201518184015260208101905061062e565b50505050905090810190601f1680156106765780820380516001836020036101000a031916815260200191505b50858103825286818151815260200191508051906020019080838360005b838110156106af578082015181840152602081019050610694565b50505050905090810190601f1680156106dc5780820380516001836020036101000a031916815260200191505b509850505050505050505060405180910390f35b3480156106fc57600080fd5b506108b5600480360381019080803590602001908201803590602001908080601f0160208091040260200160405190810160405280939291908181526020018383808284378201915050505050509192919290803590602001908201803590602001908080601f0160208091040260200160405190810160405280939291908181526020018383808284378201915050505050509192919290803590602001908201803590602001908080601f0160208091040260200160405190810160405280939291908181526020018383808284378201915050505050509192919290803590602001908201803590602001908080601f0160208091040260200160405190810160405280939291908181526020018383808284378201915050505050509192919290803590602001908201803590602001908080601f0160208091040260200160405190810160405280939291908181526020018383808284378201915050505050509192919290803590602001908201803590602001908080601f0160208091040260200160405190810160405280939291908181526020018383808284378201915050505050509192919290505050611e5e565b005b3480156108c357600080fd5b50610a7c600480360381019080803590602001908201803590602001908080601f0160208091040260200160405190810160405280939291908181526020018383808284378201915050505050509192919290803590602001908201803590602001908080601f0160208091040260200160405190810160405280939291908181526020018383808284378201915050505050509192919290803590602001908201803590602001908080601f0160208091040260200160405190810160405280939291908181526020018383808284378201915050505050509192919290803590602001908201803590602001908080601f0160208091040260200160405190810160405280939291908181526020018383808284378201915050505050509192919290803590602001908201803590602001908080601f0160208091040260200160405190810160405280939291908181526020018383808284378201915050505050509192919290803590602001908201803590602001908080601f0160208091040260200160405190810160405280939291908181526020018383808284378201915050505050509192919290505050612191565b005b348015610a8a57600080fd5b50610ae5600480360381019080803590602001908201803590602001908080601f01602080910402602001604051908101604052809392919081815260200183838082843782019150505050505091929192905050506124c4565b60405180806020018060200180602001806020018060200186810386528b818151815260200191508051906020019080838360005b83811015610b35578082015181840152602081019050610b1a565b50505050905090810190601f168015610b625780820380516001836020036101000a031916815260200191505b5086810385528a818151815260200191508051906020019080838360005b83811015610b9b578082015181840152602081019050610b80565b50505050905090810190601f168015610bc85780820380516001836020036101000a031916815260200191505b50868103845289818151815260200191508051906020019080838360005b83811015610c01578082015181840152602081019050610be6565b50505050905090810190601f168015610c2e5780820380516001836020036101000a031916815260200191505b50868103835288818151815260200191508051906020019080838360005b83811015610c67578082015181840152602081019050610c4c565b50505050905090810190601f168015610c945780820380516001836020036101000a031916815260200191505b50868103825287818151815260200191508051906020019080838360005b83811015610ccd578082015181840152602081019050610cb2565b50505050905090810190601f168015610cfa5780820380516001836020036101000a031916815260200191505b509a505050505050505050505060405180910390f35b348015610d1c57600080fd5b50610e8f600480360381019080803590602001908201803590602001908080601f0160208091040260200160405190810160405280939291908181526020018383808284378201915050505050509192919290803590602001908201803590602001908080601f0160208091040260200160405190810160405280939291908181526020018383808284378201915050505050509192919290803590602001908201803590602001908080601f0160208091040260200160405190810160405280939291908181526020018383808284378201915050505050509192919290803590602001908201803590602001908080601f0160208091040260200160405190810160405280939291908181526020018383808284378201915050505050509192919290803590602001908201803590602001908080601f0160208091040260200160405190810160405280939291908181526020018383808284378201915050505050509192919290505050612a11565b005b60606001821415610faa576000836040518082805190602001908083835b602083101515610ed45780518252602082019150602081019050602083039250610eaf565b6001836020036101000a03801982511681845116808217855250505050505090500191505090815260200160405180910390206005018054600181600116156101000203166002900480601f016020809104026020016040519081016040528092919081815260200182805460018160011615610100020316600290048015610f9e5780601f10610f7357610100808354040283529160200191610f9e565b820191906000526020600020905b815481529060010190602001808311610f8157829003601f168201915b50505050509050611211565b60028214156110c1576000836040518082805190602001908083835b602083101515610feb5780518252602082019150602081019050602083039250610fc6565b6001836020036101000a03801982511681845116808217855250505050505090500191505090815260200160405180910390206004018054600181600116156101000203166002900480601f0160208091040260200160405190810160405280929190818152602001828054600181600116156101000203166002900480156110b55780601f1061108a576101008083540402835291602001916110b5565b820191906000526020600020905b81548152906001019060200180831161109857829003601f168201915b50505050509050611211565b60038214156111d8576000836040518082805190602001908083835b60208310151561110257805182526020820191506020810190506020830392506110dd565b6001836020036101000a03801982511681845116808217855250505050505090500191505090815260200160405180910390206003018054600181600116156101000203166002900480601f0160208091040260200160405190810160405280929190818152602001828054600181600116156101000203166002900480156111cc5780601f106111a1576101008083540402835291602001916111cc565b820191906000526020600020905b8154815290600101906020018083116111af57829003601f168201915b50505050509050611211565b6040805190810160405280600981526020017f756e646566696e6564000000000000000000000000000000000000000000000081525090505b92915050565b60018214156112a457806000846040518082805190602001908083835b6020831015156112595780518252602082019150602081019050602083039250611234565b6001836020036101000a038019825116818451168082178552505050505050905001915050908152602001604051809103902060050190805190602001906112a2929190612cc0565b505b600282141561133157806000846040518082805190602001908083835b6020831015156112e657805182526020820191506020810190506020830392506112c1565b6001836020036101000a0380198251168184511680821785525050505050509050019150509081526020016040518091039020600401908051906020019061132f929190612cc0565b505b60038214156113be57806000846040518082805190602001908083835b602083101515611373578051825260208201915060208101905060208303925061134e565b6001836020036101000a038019825116818451168082178552505050505050905001915050908152602001604051809103902060030190805190602001906113bc929190612cc0565b505b7fd9b0f0df633a148a4fe7319855c86248356bd58d003cabe1fc554c4a32eee836838383604051808060200184815260200180602001838103835286818151815260200191508051906020019080838360005b8381101561142c578082015181840152602081019050611411565b50505050905090810190601f1680156114595780820380516001836020036101000a031916815260200191505b50838103825284818151815260200191508051906020019080838360005b83811015611492578082015181840152602081019050611477565b50505050905090810190601f1680156114bf5780820380516001836020036101000a031916815260200191505b509550505050505060405180910390a1505050565b60608060608060606000866040518082805190602001908083835b60208310151561151457805182526020820191506020810190506020830392506114ef565b6001836020036101000a03801982511681845116808217855250505050505090500191505090815260200160405180910390206001016000876040518082805190602001908083835b602083101515611582578051825260208201915060208101905060208303925061155d565b6001836020036101000a0380198251168184511680821785525050505050509050019150509081526020016040518091039020600c016000886040518082805190602001908083835b6020831015156115f057805182526020820191506020810190506020830392506115cb565b6001836020036101000a03801982511681845116808217855250505050505090500191505090815260200160405180910390206009016000896040518082805190602001908083835b60208310151561165e5780518252602082019150602081019050602083039250611639565b6001836020036101000a038019825116818451168082178552505050505050905001915050908152602001604051809103902060060160008a6040518082805190602001908083835b6020831015156116cc57805182526020820191506020810190506020830392506116a7565b6001836020036101000a0380198251168184511680821785525050505050509050019150509081526020016040518091039020601101848054600181600116156101000203166002900480601f0160208091040260200160405190810160405280929190818152602001828054600181600116156101000203166002900480156117975780601f1061176c57610100808354040283529160200191611797565b820191906000526020600020905b81548152906001019060200180831161177a57829003601f168201915b50505050509450838054600181600116156101000203166002900480601f0160208091040260200160405190810160405280929190818152602001828054600181600116156101000203166002900480156118335780601f1061180857610100808354040283529160200191611833565b820191906000526020600020905b81548152906001019060200180831161181657829003601f168201915b50505050509350828054600181600116156101000203166002900480601f0160208091040260200160405190810160405280929190818152602001828054600181600116156101000203166002900480156118cf5780601f106118a4576101008083540402835291602001916118cf565b820191906000526020600020905b8154815290600101906020018083116118b257829003601f168201915b50505050509250818054600181600116156101000203166002900480601f01602080910402602001604051908101604052809291908181526020018280546001816001161561010002031660029004801561196b5780601f106119405761010080835404028352916020019161196b565b820191906000526020600020905b81548152906001019060200180831161194e57829003601f168201915b50505050509150808054600181600116156101000203166002900480601f016020809104026020016040519081016040528092919081815260200182805460018160011615610100020316600290048015611a075780601f106119dc57610100808354040283529160200191611a07565b820191906000526020600020905b8154815290600101906020018083116119ea57829003601f168201915b505050505090509450945094509450945091939590929450565b6060806060806000856040518082805190602001908083835b602083101515611a5f5780518252602082019150602081019050602083039250611a3a565b6001836020036101000a03801982511681845116808217855250505050505090500191505090815260200160405180910390206002016000866040518082805190602001908083835b602083101515611acd5780518252602082019150602081019050602083039250611aa8565b6001836020036101000a0380198251168184511680821785525050505050509050019150509081526020016040518091039020600d016000876040518082805190602001908083835b602083101515611b3b5780518252602082019150602081019050602083039250611b16565b6001836020036101000a0380198251168184511680821785525050505050509050019150509081526020016040518091039020600a016000886040518082805190602001908083835b602083101515611ba95780518252602082019150602081019050602083039250611b84565b6001836020036101000a0380198251168184511680821785525050505050509050019150509081526020016040518091039020600701838054600181600116156101000203166002900480601f016020809104026020016040519081016040528092919081815260200182805460018160011615610100020316600290048015611c745780601f10611c4957610100808354040283529160200191611c74565b820191906000526020600020905b815481529060010190602001808311611c5757829003601f168201915b50505050509350828054600181600116156101000203166002900480601f016020809104026020016040519081016040528092919081815260200182805460018160011615610100020316600290048015611d105780601f10611ce557610100808354040283529160200191611d10565b820191906000526020600020905b815481529060010190602001808311611cf357829003601f168201915b50505050509250818054600181600116156101000203166002900480601f016020809104026020016040519081016040528092919081815260200182805460018160011615610100020316600290048015611dac5780601f10611d8157610100808354040283529160200191611dac565b820191906000526020600020905b815481529060010190602001808311611d8f57829003601f168201915b50505050509150808054600181600116156101000203166002900480601f016020809104026020016040519081016040528092919081815260200182805460018160011615610100020316600290048015611e485780601f10611e1d57610100808354040283529160200191611e48565b820191906000526020600020905b815481529060010190602001808311611e2b57829003601f168201915b5050505050905093509350935093509193509193565b846000876040518082805190602001908083835b602083101515611e975780518252602082019150602081019050602083039250611e72565b6001836020036101000a03801982511681845116808217855250505050505090500191505090815260200160405180910390206001019080519060200190611ee0929190612cc0565b50826000876040518082805190602001908083835b602083101515611f1a5780518252602082019150602081019050602083039250611ef5565b6001836020036101000a0380198251168184511680821785525050505050509050019150509081526020016040518091039020600c019080519060200190611f63929190612cc0565b50816000876040518082805190602001908083835b602083101515611f9d5780518252602082019150602081019050602083039250611f78565b6001836020036101000a03801982511681845116808217855250505050505090500191505090815260200160405180910390206009019080519060200190611fe6929190612cc0565b50806000876040518082805190602001908083835b6020831015156120205780518252602082019150602081019050602083039250611ffb565b6001836020036101000a03801982511681845116808217855250505050505090500191505090815260200160405180910390206006019080519060200190612069929190612cc0565b50836000876040518082805190602001908083835b6020831015156120a3578051825260208201915060208101905060208303925061207e565b6001836020036101000a038019825116818451168082178552505050505050905001915050908152602001604051809103902060110190805190602001906120ec929190612cc0565b507fa5e5df1b20cfee00f20330f3b591592f6c22c05c855ac7245839cef3545f7204866040518080602001828103825283818151815260200191508051906020019080838360005b8381101561214f578082015181840152602081019050612134565b50505050905090810190601f16801561217c5780820380516001836020036101000a031916815260200191505b509250505060405180910390a1505050505050565b846000876040518082805190602001908083835b6020831015156121ca57805182526020820191506020810190506020830392506121a5565b6001836020036101000a03801982511681845116808217855250505050505090500191505090815260200160405180910390206010019080519060200190612213929190612cc0565b50836000876040518082805190602001908083835b60208310151561224d5780518252602082019150602081019050602083039250612228565b6001836020036101000a0380198251168184511680821785525050505050509050019150509081526020016040518091039020600f019080519060200190612296929190612cc0565b50826000876040518082805190602001908083835b6020831015156122d057805182526020820191506020810190506020830392506122ab565b6001836020036101000a0380198251168184511680821785525050505050509050019150509081526020016040518091039020600b019080519060200190612319929190612cc0565b50816000876040518082805190602001908083835b602083101515612353578051825260208201915060208101905060208303925061232e565b6001836020036101000a0380198251168184511680821785525050505050509050019150509081526020016040518091039020600801908051906020019061239c929190612cc0565b50806000876040518082805190602001908083835b6020831015156123d657805182526020820191506020810190506020830392506123b1565b6001836020036101000a0380198251168184511680821785525050505050509050019150509081526020016040518091039020600e01908051906020019061241f929190612cc0565b507f49a8e1507a6f693a113e03a6b7d2ca032ebdf2908f1fcbc1b021ed7845cadf8a866040518080602001828103825283818151815260200191508051906020019080838360005b83811015612482578082015181840152602081019050612467565b50505050905090810190601f1680156124af5780820380516001836020036101000a031916815260200191505b509250505060405180910390a1505050505050565b60608060608060606000866040518082805190602001908083835b60208310151561250457805182526020820191506020810190506020830392506124df565b6001836020036101000a03801982511681845116808217855250505050505090500191505090815260200160405180910390206010016000876040518082805190602001908083835b602083101515612572578051825260208201915060208101905060208303925061254d565b6001836020036101000a0380198251168184511680821785525050505050509050019150509081526020016040518091039020600f016000886040518082805190602001908083835b6020831015156125e057805182526020820191506020810190506020830392506125bb565b6001836020036101000a0380198251168184511680821785525050505050509050019150509081526020016040518091039020600b016000896040518082805190602001908083835b60208310151561264e5780518252602082019150602081019050602083039250612629565b6001836020036101000a038019825116818451168082178552505050505050905001915050908152602001604051809103902060080160008a6040518082805190602001908083835b6020831015156126bc5780518252602082019150602081019050602083039250612697565b6001836020036101000a0380198251168184511680821785525050505050509050019150509081526020016040518091039020600e01848054600181600116156101000203166002900480601f0160208091040260200160405190810160405280929190818152602001828054600181600116156101000203166002900480156127875780601f1061275c57610100808354040283529160200191612787565b820191906000526020600020905b81548152906001019060200180831161276a57829003601f168201915b50505050509450838054600181600116156101000203166002900480601f0160208091040260200160405190810160405280929190818152602001828054600181600116156101000203166002900480156128235780601f106127f857610100808354040283529160200191612823565b820191906000526020600020905b81548152906001019060200180831161280657829003601f168201915b50505050509350828054600181600116156101000203166002900480601f0160208091040260200160405190810160405280929190818152602001828054600181600116156101000203166002900480156128bf5780601f10612894576101008083540402835291602001916128bf565b820191906000526020600020905b8154815290600101906020018083116128a257829003601f168201915b50505050509250818054600181600116156101000203166002900480601f01602080910402602001604051908101604052809291908181526020018280546001816001161561010002031660029004801561295b5780601f106129305761010080835404028352916020019161295b565b820191906000526020600020905b81548152906001019060200180831161293e57829003601f168201915b50505050509150808054600181600116156101000203166002900480601f0160208091040260200160405190810160405280929190818152602001828054600181600116156101000203166002900480156129f75780601f106129cc576101008083540402835291602001916129f7565b820191906000526020600020905b8154815290600101906020018083116129da57829003601f168201915b505050505090509450945094509450945091939590929450565b836000866040518082805190602001908083835b602083101515612a4a5780518252602082019150602081019050602083039250612a25565b6001836020036101000a03801982511681845116808217855250505050505090500191505090815260200160405180910390206002019080519060200190612a93929190612cc0565b50826000866040518082805190602001908083835b602083101515612acd5780518252602082019150602081019050602083039250612aa8565b6001836020036101000a0380198251168184511680821785525050505050509050019150509081526020016040518091039020600d019080519060200190612b16929190612cc0565b50816000866040518082805190602001908083835b602083101515612b505780518252602082019150602081019050602083039250612b2b565b6001836020036101000a0380198251168184511680821785525050505050509050019150509081526020016040518091039020600a019080519060200190612b99929190612cc0565b50806000866040518082805190602001908083835b602083101515612bd35780518252602082019150602081019050602083039250612bae565b6001836020036101000a03801982511681845116808217855250505050505090500191505090815260200160405180910390206007019080519060200190612c1c929190612cc0565b507f99d100a02e30d6fbe9128c70416db30063e0eb352d3961159f35ab3471a37fc3856040518080602001828103825283818151815260200191508051906020019080838360005b83811015612c7f578082015181840152602081019050612c64565b50505050905090810190601f168015612cac5780820380516001836020036101000a031916815260200191505b509250505060405180910390a15050505050565b828054600181600116156101000203166002900490600052602060002090601f016020900481019282601f10612d0157805160ff1916838001178555612d2f565b82800160010185558215612d2f579182015b82811115612d2e578251825591602001919060010190612d13565b5b509050612d3c9190612d40565b5090565b612d6291905b80821115612d5e576000816000905550600101612d46565b5090565b905600a165627a7a72305820806560639c59b4e1298a2c7d9a39f5a60436639eb45e0f1fbe3cfd4fc8100f1f0029",
  "source": "pragma solidity ^0.4.2;\n\ncontract OrderRegistry {\n  struct Order {\n    string supplier_name;\n    string mfg_name;\n    string dist_name;\n\n    string supplier_report;\n    string mfg_report;\n    string dist_report;\n\n    string supplier_quantity;\n    string mfg_quantity;\n    string dist_quantity;\n\n    string supplier_value;\n    string mfg_value;\n    string dist_value;\n\n    string supplier_date;\n    string mfg_date;\n    string dist_date;\n\n    string thresh_temp;\n    string product_name;\n    string raw_material_name;\n\n  }\n\n  mapping(string=>Order) registry;\n\n  event OrderGenerated(string orderno);\n  event MfgTrigger(string orderno);\n  event SupplyTrigger(string orderno);\n  event ReportSubmit(string orderno, uint category, string report);\n\n  function createOrder(string orderno, string product, string temp, string value, string quantity, string delivery) {\n    registry[orderno].product_name = product;\n    registry[orderno].thresh_temp = temp;\n    registry[orderno].dist_value = value;\n    registry[orderno].dist_quantity = quantity;\n    registry[orderno].dist_date = delivery;\n    OrderGenerated(orderno);\n  }\n\n  function setDistValues(string orderno, string name, string delivery, string value, string quantity) {\n    registry[orderno].dist_name = name;\n    registry[orderno].mfg_date = delivery;\n    registry[orderno].mfg_value = value;\n    registry[orderno].mfg_quantity = quantity;\n    MfgTrigger(orderno);\n  }\n\n  function setMfgValues(string orderno, string name, string material, string delivery, string value, string quantity) {\n    registry[orderno].mfg_name = name;\n    registry[orderno].supplier_date = delivery;\n    registry[orderno].supplier_value = value;\n    registry[orderno].supplier_quantity = quantity;\n    registry[orderno].raw_material_name = material;\n    SupplyTrigger(orderno);\n  }\n\n  function setReport(string orderno, uint category, string report) {\n    if(category == 1) {\n      registry[orderno].dist_report = report;\n    }\n    if( category == 2 ) {\n      registry[orderno].mfg_report = report;\n    }\n    if( category == 3 ) {\n      registry[orderno].supplier_report = report;\n    }\n    ReportSubmit(orderno, category, report);\n  }\n\n  function getReport(string orderno, uint category) constant returns(string) {\n    if(category == 1) {\n      return registry[orderno].dist_report;\n    }\n    if( category == 2 ) {\n      return registry[orderno].mfg_report;\n    }\n    if( category == 3 ) {\n      return registry[orderno].supplier_report;\n    }\n    return \"undefined\";\n  }\n\n  function fetchInitialDetails(string orderno) constant returns(string, string, string, string, string) {\n    return (registry[orderno].product_name,\n            registry[orderno].thresh_temp,\n            registry[orderno].dist_value,\n            registry[orderno].dist_quantity,\n            registry[orderno].dist_date);\n  }\n\n  function getDistValues(string orderno) constant returns(string, string, string, string) {\n    return (registry[orderno].dist_name, registry[orderno].mfg_date,\n            registry[orderno].mfg_value, registry[orderno].mfg_quantity);\n  }\n\n  function getMfgDetails(string orderno) constant returns(string, string, string, string, string) {\n    return (registry[orderno].mfg_name,\n    registry[orderno].supplier_date,\n    registry[orderno].supplier_value,\n    registry[orderno].supplier_quantity,\n    registry[orderno].raw_material_name);\n  }\n\n}\n",
  "sourcePath": "/home/sripaad/Desktop/supply-chain-master/contracts/OrderRegistry.sol",
  "compiler": {
    "name": "solc",
    "version": "0.4.24+commit.e67f0147.Emscripten.clang"
  },
  "schemaVersion": "2.0.1",
  "updatedAt": "2018-09-29T17:41:46.104Z"
}