{
  "contractName": "UserRegistry",
  "abi": [
    {
      "constant": true,
      "inputs": [],
      "name": "owner",
      "outputs": [
        {
          "name": "",
          "type": "address"
        }
      ],
      "payable": false,
      "stateMutability": "view",
      "type": "function"
    },
    {
      "constant": false,
      "inputs": [
        {
          "name": "addr",
          "type": "string"
        },
        {
          "name": "role",
          "type": "string"
        }
      ],
      "name": "setRole",
      "outputs": [],
      "payable": false,
      "stateMutability": "nonpayable",
      "type": "function"
    },
    {
      "constant": true,
      "inputs": [
        {
          "name": "addr",
          "type": "string"
        }
      ],
      "name": "getRole",
      "outputs": [
        {
          "name": "",
          "type": "string"
        }
      ],
      "payable": false,
      "stateMutability": "view",
      "type": "function"
    }
  ],
  "bytecode": "0x6080604052336000806101000a81548173ffffffffffffffffffffffffffffffffffffffff021916908373ffffffffffffffffffffffffffffffffffffffff16021790555034801561005057600080fd5b50610528806100606000396000f300608060405260043610610057576000357c0100000000000000000000000000000000000000000000000000000000900463ffffffff1680636e9067fb1461005c5780638da5cb5b1461013e578063d0799bee14610195575b600080fd5b34801561006857600080fd5b506100c3600480360381019080803590602001908201803590602001908080601f0160208091040260200160405190810160405280939291908181526020018383808284378201915050505050509192919290505050610244565b6040518080602001828103825283818151815260200191508051906020019080838360005b838110156101035780820151818401526020810190506100e8565b50505050905090810190601f1680156101305780820380516001836020036101000a031916815260200191505b509250505060405180910390f35b34801561014a57600080fd5b50610153610351565b604051808273ffffffffffffffffffffffffffffffffffffffff1673ffffffffffffffffffffffffffffffffffffffff16815260200191505060405180910390f35b3480156101a157600080fd5b50610242600480360381019080803590602001908201803590602001908080601f0160208091040260200160405190810160405280939291908181526020018383808284378201915050505050509192919290803590602001908201803590602001908080601f0160208091040260200160405190810160405280939291908181526020018383808284378201915050505050509192919290505050610376565b005b60606001826040518082805190602001908083835b60208310151561027e5780518252602082019150602081019050602083039250610259565b6001836020036101000a03801982511681845116808217855250505050505090500191505090815260200160405180910390208054600181600116156101000203166002900480601f0160208091040260200160405190810160405280929190818152602001828054600181600116156101000203166002900480156103455780601f1061031a57610100808354040283529160200191610345565b820191906000526020600020905b81548152906001019060200180831161032857829003601f168201915b50505050509050919050565b6000809054906101000a900473ffffffffffffffffffffffffffffffffffffffff1681565b6000809054906101000a900473ffffffffffffffffffffffffffffffffffffffff168073ffffffffffffffffffffffffffffffffffffffff163373ffffffffffffffffffffffffffffffffffffffff161415156103d257600080fd5b816001846040518082805190602001908083835b60208310151561040b57805182526020820191506020810190506020830392506103e6565b6001836020036101000a03801982511681845116808217855250505050505090500191505090815260200160405180910390209080519060200190610451929190610457565b50505050565b828054600181600116156101000203166002900490600052602060002090601f016020900481019282601f1061049857805160ff19168380011785556104c6565b828001600101855582156104c6579182015b828111156104c55782518255916020019190600101906104aa565b5b5090506104d391906104d7565b5090565b6104f991905b808211156104f55760008160009055506001016104dd565b5090565b905600a165627a7a723058200fa47674df4d2d48207eb6e54df67dc3b5079b1a7db960f80947743c09e561ed0029",
  "source": "pragma solidity ^0.4.2;\n\ncontract UserRegistry {\n  address public owner = msg.sender;\n\n  mapping(string=>string) registry;\n\nmodifier onlyBy(address _account)\n    {\n        require(msg.sender == _account);\n        _;\n    }\n\n  function setRole(string addr, string role) onlyBy(owner) {\n    registry[addr] = role;\n  }\n\n  function getRole(string addr) constant returns(string) {\n    return registry[addr];\n  }\n}\n",
  "sourcePath": "/home/sripaad/Desktop/supply-chain-master/contracts/UserRegistry.sol",
  "compiler": {
    "name": "solc",
    "version": "0.4.24+commit.e67f0147.Emscripten.clang"
  },
  "schemaVersion": "2.0.1",
  "updatedAt": "2018-09-29T17:41:46.093Z"
}